{
  "contractName": "NonfungiblePositionManagerPositionsGasTest",
  "abi": [
    {
      "inputs": [
        {
          "internalType": "contract INonfungiblePositionManager",
          "name": "_nonfungiblePositionManager",
          "type": "address"
        }
      ],
      "stateMutability": "nonpayable",
      "type": "constructor"
    },
    {
      "inputs": [
        {
          "internalType": "uint256",
          "name": "tokenId",
          "type": "uint256"
        }
      ],
      "name": "getGasCostOfPositions",
      "outputs": [
        {
          "internalType": "uint256",
          "name": "",
          "type": "uint256"
        }
      ],
      "stateMutability": "view",
      "type": "function"
    }
  ],
  "bytecode": "0x60a060405234801561001057600080fd5b506040516101933803806101938339818101604052602081101561003357600080fd5b5051606081901b6001600160601b0319166080526001600160a01b031661012d610066600039806061525061012d6000f3fe6080604052348015600f57600080fd5b506004361060285760003560e01c8063994ea42c14602d575b600080fd5b604760048036036020811015604157600080fd5b50356059565b60408051918252519081900360200190f35b6000805a90507f00000000000000000000000000000000000000000000000000000000000000006001600160a01b03166399fbab88846040518263ffffffff1660e01b8152600401808281526020019150506101806040518083038186803b15801560c357600080fd5b505afa15801560d6573d6000803e3d6000fd5b505050506040513d61018081101560ec57600080fd5b50505a90039291505056fea2646970667358221220806003c6f142ec2f07c5327e216f7bc5d173a1c46dd0552b813171f1e861e1e664736f6c63430007060033",
  "immutableReferences": {
    "20623": [
      {
        "length": 32,
        "start": 97
      }
    ]
  },
  "source": "// SPDX-License-Identifier: UNLICENSED\npragma solidity =0.7.6;\n\nimport '../interfaces/INonfungiblePositionManager.sol';\n\ncontract NonfungiblePositionManagerPositionsGasTest {\n    INonfungiblePositionManager immutable nonfungiblePositionManager;\n\n    constructor(INonfungiblePositionManager _nonfungiblePositionManager) {\n        nonfungiblePositionManager = _nonfungiblePositionManager;\n    }\n\n    function getGasCostOfPositions(uint256 tokenId) external view returns (uint256) {\n        uint256 gasBefore = gasleft();\n        nonfungiblePositionManager.positions(tokenId);\n        return gasBefore - gasleft();\n    }\n}\n",
  "sourcePath": "C:\\Users\\fork-uniswap\\periphery\\contracts\\test\\NonfungiblePositionManagerPositionsGasTest.sol",
  "compiler": {
    "name": "solc",
    "version": "0.7.6+commit.7338295f.Emscripten.clang"
  },
  "schemaVersion": "3.4.3",
  "updatedAt": "2022-03-05T10:56:34.864Z",
  "devdoc": {
    "kind": "dev",
    "methods": {},
    "version": 1
  },
  "userdoc": {
    "kind": "user",
    "methods": {},
    "version": 1
  }
}