{
  "contractName": "OracleTest",
  "abi": [
    {
      "inputs": [
        {
          "internalType": "address",
          "name": "pool",
          "type": "address"
        },
        {
          "internalType": "uint32",
          "name": "secondsAgo",
          "type": "uint32"
        }
      ],
      "name": "consult",
      "outputs": [
        {
          "internalType": "int24",
          "name": "arithmeticMeanTick",
          "type": "int24"
        },
        {
          "internalType": "uint128",
          "name": "harmonicMeanLiquidity",
          "type": "uint128"
        }
      ],
      "stateMutability": "view",
      "type": "function"
    },
    {
      "inputs": [
        {
          "internalType": "int24",
          "name": "tick",
          "type": "int24"
        },
        {
          "internalType": "uint128",
          "name": "baseAmount",
          "type": "uint128"
        },
        {
          "internalType": "address",
          "name": "baseToken",
          "type": "address"
        },
        {
          "internalType": "address",
          "name": "quoteToken",
          "type": "address"
        }
      ],
      "name": "getQuoteAtTick",
      "outputs": [
        {
          "internalType": "uint256",
          "name": "quoteAmount",
          "type": "uint256"
        }
      ],
      "stateMutability": "pure",
      "type": "function"
    },
    {
      "inputs": [
        {
          "internalType": "address",
          "name": "pool",
          "type": "address"
        },
        {
          "internalType": "uint32",
          "name": "period",
          "type": "uint32"
        }
      ],
      "name": "getGasCostOfConsult",
      "outputs": [
        {
          "internalType": "uint256",
          "name": "",
          "type": "uint256"
        }
      ],
      "stateMutability": "view",
      "type": "function"
    },
    {
      "inputs": [
        {
          "internalType": "int24",
          "name": "tick",
          "type": "int24"
        },
        {
          "internalType": "uint128",
          "name": "baseAmount",
          "type": "uint128"
        },
        {
          "internalType": "address",
          "name": "baseToken",
          "type": "address"
        },
        {
          "internalType": "address",
          "name": "quoteToken",
          "type": "address"
        }
      ],
      "name": "getGasCostOfGetQuoteAtTick",
      "outputs": [
        {
          "internalType": "uint256",
          "name": "",
          "type": "uint256"
        }
      ],
      "stateMutability": "view",
      "type": "function"
    },
    {
      "inputs": [
        {
          "internalType": "address",
          "name": "pool",
          "type": "address"
        }
      ],
      "name": "getOldestObservationSecondsAgo",
      "outputs": [
        {
          "internalType": "uint32",
          "name": "secondsAgo",
          "type": "uint32"
        },
        {
          "internalType": "uint32",
          "name": "currentTimestamp",
          "type": "uint32"
        }
      ],
      "stateMutability": "view",
      "type": "function"
    },
    {
      "inputs": [
        {
          "internalType": "address",
          "name": "pool",
          "type": "address"
        }
      ],
      "name": "getBlockStartingTickAndLiquidity",
      "outputs": [
        {
          "internalType": "int24",
          "name": "",
          "type": "int24"
        },
        {
          "internalType": "uint128",
          "name": "",
          "type": "uint128"
        }
      ],
      "stateMutability": "view",
      "type": "function"
    },
    {
      "inputs": [
        {
          "components": [
            {
              "internalType": "int24",
              "name": "tick",
              "type": "int24"
            },
            {
              "internalType": "uint128",
              "name": "weight",
              "type": "uint128"
            }
          ],
          "internalType": "struct OracleLibrary.WeightedTickData[]",
          "name": "observations",
          "type": "tuple[]"
        }
      ],
      "name": "getWeightedArithmeticMeanTick",
      "outputs": [
        {
          "internalType": "int24",
          "name": "arithmeticMeanWeightedTick",
          "type": "int24"
        }
      ],
      "stateMutability": "pure",
      "type": "function"
    }
  ],
  "bytecode": "0x608060405234801561001057600080fd5b50611259806100206000396000f3fe608060405234801561001057600080fd5b506004361061007d5760003560e01c8063824134891161005b57806382413489146100df578063ab34b0fc146100f2578063bbe8f41914610112578063e6c4fbe0146101255761007d565b8063333b19a81461008257806343c57a27146100ac5780636a816ff9146100cc575b600080fd5b610095610090366004611029565b610146565b6040516100a39291906111c3565b60405180910390f35b6100bf6100ba366004611162565b61015c565b6040516100a391906111df565b6100bf6100da366004611162565b610173565b6100956100ed366004611043565b610192565b610105610100366004611081565b6101aa565b6040516100a391906111b5565b6100bf610120366004611043565b6101bd565b610138610133366004611029565b6101d9565b6040516100a39291906111e8565b600080610152836101ee565b915091505b915091565b600061016a85858585610516565b95945050505050565b6000805a905061018586868686610516565b505a900395945050505050565b60008061019f848461060d565b915091509250929050565b60006101b58261097c565b90505b919050565b6000805a90506101cd848461060d565b50505a90039392505050565b6000806101e583610a38565b93429350915050565b6000806000806000856001600160a01b0316633850c7bd6040518163ffffffff1660e01b815260040160e06040518083038186803b15801561022f57600080fd5b505afa158015610243573d6000803e3d6000fd5b505050506040513d60e081101561025957600080fd5b50602081015160408201516060909201519094509092509050600161ffff8216116102b1576040805162461bcd60e51b81526020600482015260036024820152624e454f60e81b604482015290519081900360640190fd5b6000806000886001600160a01b031663252c09d7866040518263ffffffff1660e01b8152600401808261ffff16815260200191505060806040518083038186803b1580156102fe57600080fd5b505afa158015610312573d6000803e3d6000fd5b505050506040513d608081101561032857600080fd5b508051602082015160409092015190945090925090504263ffffffff908116908416146103c65785896001600160a01b0316631a6865026040518163ffffffff1660e01b815260040160206040518083038186803b15801561038957600080fd5b505afa15801561039d573d6000803e3d6000fd5b505050506040513d60208110156103b357600080fd5b5051909850965061015795505050505050565b60008461ffff1660018661ffff168861ffff160103816103e257fe5b0690506000806000808d6001600160a01b031663252c09d7866040518263ffffffff1660e01b81526004018082815260200191505060806040518083038186803b15801561042f57600080fd5b505afa158015610443573d6000803e3d6000fd5b505050506040513d608081101561045957600080fd5b5080516020820151604083015160609093015191965094509092509050806104ae576040805162461bcd60e51b81526020600482015260036024820152624f4e4960e81b604482015290519081900360640190fd5b83880363ffffffff811684890360060b816104c557fe5b059b506000640100000000600160c01b0384890360201b1663ffffffff83166001600160a01b03026001600160c01b0316816104fd57fe5b9d9f50909c049c50505050505050505050505050915091565b60008061052286610c07565b90506001600160801b036001600160a01b03821611610591576001600160a01b03808216800290848116908616106105715761056c600160c01b876001600160801b031683610f39565b610589565b61058981876001600160801b0316600160c01b610f39565b925050610604565b60006105b06001600160a01b0383168068010000000000000000610f39565b9050836001600160a01b0316856001600160a01b0316106105e8576105e3600160801b876001600160801b031683610f39565b610600565b61060081876001600160801b0316600160801b610f39565b9250505b50949350505050565b60008063ffffffff831661064d576040805162461bcd60e51b8152602060048201526002602482015261042560f41b604482015290519081900360640190fd5b604080516002808252606082018352600092602083019080368337019050509050838160008151811061067c57fe5b602002602001019063ffffffff16908163ffffffff16815250506000816001815181106106a557fe5b63ffffffff90921660209283029190910182015260405163883bdbfd60e01b81526004810182815283516024830152835160009384936001600160a01b038b169363883bdbfd9388939192839260449091019185820191028083838b5b8381101561071a578181015183820152602001610702565b505050509050019250505060006040518083038186803b15801561073d57600080fd5b505afa158015610751573d6000803e3d6000fd5b505050506040513d6000823e601f3d908101601f19168201604090815281101561077a57600080fd5b810190808051604051939291908464010000000082111561079a57600080fd5b9083019060208201858111156107af57600080fd5b82518660208202830111640100000000821117156107cc57600080fd5b82525081516020918201928201910280838360005b838110156107f95781810151838201526020016107e1565b505050509050016040526020018051604051939291908464010000000082111561082257600080fd5b90830190602082018581111561083757600080fd5b825186602082028301116401000000008211171561085457600080fd5b82525081516020918201928201910280838360005b83811015610881578181015183820152602001610869565b50505050905001604052505050915091506000826000815181106108a157fe5b6020026020010151836001815181106108b657fe5b60200260200101510390506000826000815181106108d057fe5b6020026020010151836001815181106108e557fe5b60200260200101510390508763ffffffff168260060b8161090257fe5b05965060008260060b12801561092c57508763ffffffff168260060b8161092557fe5b0760060b15155b1561093957600019909601955b63ffffffff88166001600160a01b0302640100000000600160c01b03602083901b166001600160c01b0382168161096c57fe5b0496505050505050509250929050565b6000806000805b84518110156109ff5784818151811061099857fe5b6020026020010151602001516001600160801b03168582815181106109b957fe5b60200260200101516000015160020b02830192508481815181106109d957fe5b6020026020010151602001516001600160801b0316820191508080600101915050610983565b50808281610a0957fe5b059250600082128015610a245750808281610a2057fe5b0715155b15610a3157600019909201915b5050919050565b6000806000836001600160a01b0316633850c7bd6040518163ffffffff1660e01b815260040160e06040518083038186803b158015610a7657600080fd5b505afa158015610a8a573d6000803e3d6000fd5b505050506040513d60e0811015610aa057600080fd5b506040810151606090910151909250905061ffff8116610aec576040805162461bcd60e51b81526020600482015260026024820152614e4960f01b604482015290519081900360640190fd5b600080856001600160a01b031663252c09d78461ffff168660010161ffff1681610b1257fe5b066040518263ffffffff1660e01b8152600401808261ffff16815260200191505060806040518083038186803b158015610b4b57600080fd5b505afa158015610b5f573d6000803e3d6000fd5b505050506040513d6080811015610b7557600080fd5b508051606090910151909250905080610bfc57856001600160a01b031663252c09d760006040518263ffffffff1660e01b81526004018082815260200191505060806040518083038186803b158015610bcd57600080fd5b505afa158015610be1573d6000803e3d6000fd5b505050506040513d6080811015610bf757600080fd5b505191505b504203949350505050565b60008060008360020b12610c1e578260020b610c26565b8260020b6000035b9050620d89e8811115610c64576040805162461bcd60e51b81526020600482015260016024820152601560fa1b604482015290519081900360640190fd5b600060018216610c7857600160801b610c8a565b6ffffcb933bd6fad37aa2d162d1a5940015b70ffffffffffffffffffffffffffffffffff1690506002821615610cbe576ffff97272373d413259a46990580e213a0260801c5b6004821615610cdd576ffff2e50f5f656932ef12357cf3c7fdcc0260801c5b6008821615610cfc576fffe5caca7e10e4e61c3624eaa0941cd00260801c5b6010821615610d1b576fffcb9843d60f6159c9db58835c9266440260801c5b6020821615610d3a576fff973b41fa98c081472e6896dfb254c00260801c5b6040821615610d59576fff2ea16466c96a3843ec78b326b528610260801c5b6080821615610d78576ffe5dee046a99a2a811c461f1969c30530260801c5b610100821615610d98576ffcbe86c7900a88aedcffc83b479aa3a40260801c5b610200821615610db8576ff987a7253ac413176f2b074cf7815e540260801c5b610400821615610dd8576ff3392b0822b70005940c7a398e4b70f30260801c5b610800821615610df8576fe7159475a2c29b7443b29c7fa6e889d90260801c5b611000821615610e18576fd097f3bdfd2022b8845ad8f792aa58250260801c5b612000821615610e38576fa9f746462d870fdf8a65dc1f90e061e50260801c5b614000821615610e58576f70d869a156d2a1b890bb3df62baf32f70260801c5b618000821615610e78576f31be135f97d08fd981231505542fcfa60260801c5b62010000821615610e99576f09aa508b5b7a84e1c677de54f3e99bc90260801c5b62020000821615610eb9576e5d6af8dedb81196699c329225ee6040260801c5b62040000821615610ed8576d2216e584f5fa1ea926041bedfe980260801c5b62080000821615610ef5576b048a170391f7dc42444e8fa20260801c5b60008460020b1315610f10578060001981610f0c57fe5b0490505b640100000000810615610f24576001610f27565b60005b60ff16602082901c0192505050919050565b6000808060001985870986860292508281109083900303905080610f6f5760008411610f6457600080fd5b508290049050610fe2565b808411610f7b57600080fd5b6000848688096000868103871696879004966002600389028118808a02820302808a02820302808a02820302808a02820302808a02820302808a02909103029181900381900460010186841190950394909402919094039290920491909117919091029150505b9392505050565b80356001600160a01b03811681146101b857600080fd5b8035600281900b81146101b857600080fd5b80356001600160801b03811681146101b857600080fd5b60006020828403121561103a578081fd5b610fe282610fe9565b60008060408385031215611055578081fd5b61105e83610fe9565b9150602083013563ffffffff81168114611076578182fd5b809150509250929050565b60006020808385031215611093578182fd5b823567ffffffffffffffff808211156110aa578384fd5b818501915085601f8301126110bd578384fd5b8135818111156110c957fe5b6110d684858302016111ff565b818152848101908486016040808502870188018b10156110f4578889fd5b8896505b848710156111535780828c03121561110e578889fd5b8051818101818110888211171561112157fe5b825261112c83611000565b8152611139898401611012565b818a015284526001969096019592870192908101906110f8565b50909998505050505050505050565b60008060008060808587031215611177578182fd5b61118085611000565b935061118e60208601611012565b925061119c60408601610fe9565b91506111aa60608601610fe9565b905092959194509250565b60029190910b815260200190565b60029290920b82526001600160801b0316602082015260400190565b90815260200190565b63ffffffff92831681529116602082015260400190565b60405181810167ffffffffffffffff8111828210171561121b57fe5b60405291905056fea2646970667358221220f4542af2e40c11cc53edde7c5386c6096c50ae69ff53c2adfaf98d71b67d97c464736f6c63430007060033",
  "immutableReferences": {},
  "source": "// SPDX-License-Identifier: UNLICENSED\npragma solidity =0.7.6;\npragma abicoder v2;\n\nimport '../libraries/OracleLibrary.sol';\n\ncontract OracleTest {\n    function consult(address pool, uint32 secondsAgo)\n        public\n        view\n        returns (int24 arithmeticMeanTick, uint128 harmonicMeanLiquidity)\n    {\n        return OracleLibrary.consult(pool, secondsAgo);\n    }\n\n    function getQuoteAtTick(\n        int24 tick,\n        uint128 baseAmount,\n        address baseToken,\n        address quoteToken\n    ) public pure returns (uint256 quoteAmount) {\n        quoteAmount = OracleLibrary.getQuoteAtTick(tick, baseAmount, baseToken, quoteToken);\n    }\n\n    // For gas snapshot test\n    function getGasCostOfConsult(address pool, uint32 period) public view returns (uint256) {\n        uint256 gasBefore = gasleft();\n        OracleLibrary.consult(pool, period);\n        return gasBefore - gasleft();\n    }\n\n    function getGasCostOfGetQuoteAtTick(\n        int24 tick,\n        uint128 baseAmount,\n        address baseToken,\n        address quoteToken\n    ) public view returns (uint256) {\n        uint256 gasBefore = gasleft();\n        OracleLibrary.getQuoteAtTick(tick, baseAmount, baseToken, quoteToken);\n        return gasBefore - gasleft();\n    }\n\n    function getOldestObservationSecondsAgo(address pool)\n        public\n        view\n        returns (uint32 secondsAgo, uint32 currentTimestamp)\n    {\n        secondsAgo = OracleLibrary.getOldestObservationSecondsAgo(pool);\n        currentTimestamp = uint32(block.timestamp);\n    }\n\n    function getBlockStartingTickAndLiquidity(address pool) public view returns (int24, uint128) {\n        return OracleLibrary.getBlockStartingTickAndLiquidity(pool);\n    }\n\n    function getWeightedArithmeticMeanTick(OracleLibrary.WeightedTickData[] memory observations)\n        public\n        pure\n        returns (int24 arithmeticMeanWeightedTick)\n    {\n        return OracleLibrary.getWeightedArithmeticMeanTick(observations);\n    }\n}\n",
  "sourcePath": "C:\\Users\\fork-uniswap\\periphery\\contracts\\test\\OracleTest.sol",
  "compiler": {
    "name": "solc",
    "version": "0.7.6+commit.7338295f.Emscripten.clang"
  },
  "schemaVersion": "3.4.3",
  "updatedAt": "2022-03-05T10:56:34.867Z",
  "devdoc": {
    "kind": "dev",
    "methods": {},
    "version": 1
  },
  "userdoc": {
    "kind": "user",
    "methods": {},
    "version": 1
  }
}