{
  "contractName": "PeripheryImmutableStateTest",
  "abi": [
    {
      "inputs": [
        {
          "internalType": "address",
          "name": "_factory",
          "type": "address"
        },
        {
          "internalType": "address",
          "name": "_WETH9",
          "type": "address"
        }
      ],
      "stateMutability": "nonpayable",
      "type": "constructor"
    },
    {
      "inputs": [],
      "name": "WETH9",
      "outputs": [
        {
          "internalType": "address",
          "name": "",
          "type": "address"
        }
      ],
      "stateMutability": "view",
      "type": "function"
    },
    {
      "inputs": [],
      "name": "factory",
      "outputs": [
        {
          "internalType": "address",
          "name": "",
          "type": "address"
        }
      ],
      "stateMutability": "view",
      "type": "function"
    }
  ],
  "bytecode": "0x60c060405234801561001057600080fd5b506040516101573803806101578339818101604052604081101561003357600080fd5b5080516020909101516001600160601b0319606092831b8116608052911b1660a05260805160601c60a05160601c60dd61007a6000398060615250806085525060dd6000f3fe6080604052348015600f57600080fd5b506004361060325760003560e01c80634aa4a4fc146037578063c45a0155146059575b600080fd5b603d605f565b604080516001600160a01b039092168252519081900360200190f35b603d6083565b7f000000000000000000000000000000000000000000000000000000000000000081565b7f00000000000000000000000000000000000000000000000000000000000000008156fea26469706673582212201a8e66501adb01ee4d3fd5354be65fdfcb61daf62bfc50502bde44ac6a5da55964736f6c63430007060033",
  "immutableReferences": {
    "11257": [
      {
        "length": 32,
        "start": 133
      }
    ],
    "11261": [
      {
        "length": 32,
        "start": 97
      }
    ]
  },
  "source": "// SPDX-License-Identifier: GPL-2.0-or-later\npragma solidity =0.7.6;\n\nimport '../base/PeripheryImmutableState.sol';\n\ncontract PeripheryImmutableStateTest is PeripheryImmutableState {\n    constructor(address _factory, address _WETH9) PeripheryImmutableState(_factory, _WETH9) {}\n}\n",
  "sourcePath": "C:\\Users\\fork-uniswap\\periphery\\contracts\\test\\PeripheryImmutableStateTest.sol",
  "compiler": {
    "name": "solc",
    "version": "0.7.6+commit.7338295f.Emscripten.clang"
  },
  "schemaVersion": "3.4.3",
  "updatedAt": "2022-03-05T10:56:34.873Z",
  "devdoc": {
    "kind": "dev",
    "methods": {},
    "version": 1
  },
  "userdoc": {
    "kind": "user",
    "methods": {},
    "version": 1
  }
}