{
  "contractName": "LowGasSafeMathEchidnaTest",
  "abi": [
    {
      "inputs": [
        {
          "internalType": "uint256",
          "name": "x",
          "type": "uint256"
        },
        {
          "internalType": "uint256",
          "name": "y",
          "type": "uint256"
        }
      ],
      "name": "checkAdd",
      "outputs": [],
      "stateMutability": "pure",
      "type": "function"
    },
    {
      "inputs": [
        {
          "internalType": "uint256",
          "name": "x",
          "type": "uint256"
        },
        {
          "internalType": "uint256",
          "name": "y",
          "type": "uint256"
        }
      ],
      "name": "checkSub",
      "outputs": [],
      "stateMutability": "pure",
      "type": "function"
    },
    {
      "inputs": [
        {
          "internalType": "uint256",
          "name": "x",
          "type": "uint256"
        },
        {
          "internalType": "uint256",
          "name": "y",
          "type": "uint256"
        }
      ],
      "name": "checkMul",
      "outputs": [],
      "stateMutability": "pure",
      "type": "function"
    },
    {
      "inputs": [
        {
          "internalType": "int256",
          "name": "x",
          "type": "int256"
        },
        {
          "internalType": "int256",
          "name": "y",
          "type": "int256"
        }
      ],
      "name": "checkAddi",
      "outputs": [],
      "stateMutability": "pure",
      "type": "function"
    },
    {
      "inputs": [
        {
          "internalType": "int256",
          "name": "x",
          "type": "int256"
        },
        {
          "internalType": "int256",
          "name": "y",
          "type": "int256"
        }
      ],
      "name": "checkSubi",
      "outputs": [],
      "stateMutability": "pure",
      "type": "function"
    }
  ],
  "bytecode": "0x608060405234801561001057600080fd5b506102b5806100206000396000f3fe608060405234801561001057600080fd5b50600436106100575760003560e01c80630f9350001461005c5780630fe48c5c146100815780636d886fae146100a45780639239e777146100c7578063bd78b20d146100ea575b600080fd5b61007f6004803603604081101561007257600080fd5b508035906020013561010d565b005b61007f6004803603604081101561009757600080fd5b5080359060200135610141565b61007f600480360360408110156100ba57600080fd5b5080359060200135610180565b61007f600480360360408110156100dd57600080fd5b50803590602001356101a3565b61007f6004803603604081101561010057600080fd5b50803590602001356101d6565b60006101198383610209565b9050818301811461012657fe5b8281101580156101365750818110155b61013c57fe5b505050565b600061014d838361021f565b9050818302811461015a57fe5b821580610165575081155b80610136575082811015801561013657508181101561013c57fe5b600061018c8383610243565b9050818303811461019957fe5b8281111561013c57fe5b60006101af8383610253565b905081830181146101bc57fe5b600082126101cd5782811215610136565b82811261013c57fe5b60006101e28383610269565b905081830381146101ef57fe5b600082126102005782811315610136565b82811361013c57fe5b8082018281101561021957600080fd5b92915050565b600082158061023a5750508181028183828161023757fe5b04145b61021957600080fd5b8082038281111561021957600080fd5b8181018281121560008312151461021957600080fd5b8082038281131560008312151461021957600080fdfea2646970667358221220d10499290530a8145c967439af1e2b0b8c7cadb77b936b95caeb60a78556b26b64736f6c63430007060033",
  "immutableReferences": {},
  "source": "// SPDX-License-Identifier: UNLICENSED\npragma solidity =0.7.6;\n\nimport '../libraries/LowGasSafeMath.sol';\n\ncontract LowGasSafeMathEchidnaTest {\n    function checkAdd(uint256 x, uint256 y) external pure {\n        uint256 z = LowGasSafeMath.add(x, y);\n        assert(z == x + y);\n        assert(z >= x && z >= y);\n    }\n\n    function checkSub(uint256 x, uint256 y) external pure {\n        uint256 z = LowGasSafeMath.sub(x, y);\n        assert(z == x - y);\n        assert(z <= x);\n    }\n\n    function checkMul(uint256 x, uint256 y) external pure {\n        uint256 z = LowGasSafeMath.mul(x, y);\n        assert(z == x * y);\n        assert(x == 0 || y == 0 || (z >= x && z >= y));\n    }\n\n    function checkAddi(int256 x, int256 y) external pure {\n        int256 z = LowGasSafeMath.add(x, y);\n        assert(z == x + y);\n        assert(y < 0 ? z < x : z >= x);\n    }\n\n    function checkSubi(int256 x, int256 y) external pure {\n        int256 z = LowGasSafeMath.sub(x, y);\n        assert(z == x - y);\n        assert(y < 0 ? z > x : z <= x);\n    }\n}\n",
  "sourcePath": "C:\\Users\\fork-uniswap\\core\\contracts\\test\\LowGasSafeMathEchidnaTest.sol",
  "compiler": {
    "name": "solc",
    "version": "0.7.6+commit.7338295f.Emscripten.clang"
  },
  "schemaVersion": "3.4.3",
  "updatedAt": "2022-03-05T06:45:30.780Z",
  "devdoc": {
    "kind": "dev",
    "methods": {},
    "version": 1
  },
  "userdoc": {
    "kind": "user",
    "methods": {},
    "version": 1
  }
}