{
  "contractName": "TickMathEchidnaTest",
  "abi": [
    {
      "inputs": [
        {
          "internalType": "int24",
          "name": "tick",
          "type": "int24"
        }
      ],
      "name": "checkGetSqrtRatioAtTickInvariants",
      "outputs": [],
      "stateMutability": "pure",
      "type": "function"
    },
    {
      "inputs": [
        {
          "internalType": "uint160",
          "name": "ratio",
          "type": "uint160"
        }
      ],
      "name": "checkGetTickAtSqrtRatioInvariants",
      "outputs": [],
      "stateMutability": "pure",
      "type": "function"
    }
  ],
  "bytecode": "0x608060405234801561001057600080fd5b5061082c806100206000396000f3fe608060405234801561001057600080fd5b50600436106100365760003560e01c806347d38f4d1461003b578063df01e52d1461005d575b600080fd5b61005b6004803603602081101561005157600080fd5b503560020b610083565b005b61005b6004803603602081101561007357600080fd5b50356001600160a01b0316610121565b600061008e8261019c565b9050806001600160a01b03166100a66001840361019c565b6001600160a01b03161080156100d857506100c38260010161019c565b6001600160a01b0316816001600160a01b0316105b6100de57fe5b6401000276a36001600160a01b03821610156100f657fe5b73fffd8963efd1fc6a506488495d951d5263988d266001600160a01b038216111561011d57fe5b5050565b600061012c826104ce565b90506101378161019c565b6001600160a01b0316826001600160a01b031610158015610174575061015f8160010161019c565b6001600160a01b0316826001600160a01b0316105b61017a57fe5b620d89e719600282900b121561018c57fe5b620d89e8600282900b1261011d57fe5b60008060008360020b126101b3578260020b6101bb565b8260020b6000035b9050620d89e88111156101f9576040805162461bcd60e51b81526020600482015260016024820152601560fa1b604482015290519081900360640190fd5b60006001821661020d57600160801b61021f565b6ffffcb933bd6fad37aa2d162d1a5940015b70ffffffffffffffffffffffffffffffffff1690506002821615610253576ffff97272373d413259a46990580e213a0260801c5b6004821615610272576ffff2e50f5f656932ef12357cf3c7fdcc0260801c5b6008821615610291576fffe5caca7e10e4e61c3624eaa0941cd00260801c5b60108216156102b0576fffcb9843d60f6159c9db58835c9266440260801c5b60208216156102cf576fff973b41fa98c081472e6896dfb254c00260801c5b60408216156102ee576fff2ea16466c96a3843ec78b326b528610260801c5b608082161561030d576ffe5dee046a99a2a811c461f1969c30530260801c5b61010082161561032d576ffcbe86c7900a88aedcffc83b479aa3a40260801c5b61020082161561034d576ff987a7253ac413176f2b074cf7815e540260801c5b61040082161561036d576ff3392b0822b70005940c7a398e4b70f30260801c5b61080082161561038d576fe7159475a2c29b7443b29c7fa6e889d90260801c5b6110008216156103ad576fd097f3bdfd2022b8845ad8f792aa58250260801c5b6120008216156103cd576fa9f746462d870fdf8a65dc1f90e061e50260801c5b6140008216156103ed576f70d869a156d2a1b890bb3df62baf32f70260801c5b61800082161561040d576f31be135f97d08fd981231505542fcfa60260801c5b6201000082161561042e576f09aa508b5b7a84e1c677de54f3e99bc90260801c5b6202000082161561044e576e5d6af8dedb81196699c329225ee6040260801c5b6204000082161561046d576d2216e584f5fa1ea926041bedfe980260801c5b6208000082161561048a576b048a170391f7dc42444e8fa20260801c5b60008460020b13156104a55780600019816104a157fe5b0490505b6401000000008106156104b95760016104bc565b60005b60ff16602082901c0192505050919050565b60006401000276a36001600160a01b0383161080159061050a575073fffd8963efd1fc6a506488495d951d5263988d266001600160a01b038316105b61053f576040805162461bcd60e51b81526020600482015260016024820152602960f91b604482015290519081900360640190fd5b640100000000600160c01b03602083901b166fffffffffffffffffffffffffffffffff811160071b81811c67ffffffffffffffff811160061b90811c63ffffffff811160051b90811c61ffff811160041b90811c60ff8111600390811b91821c600f811160021b90811c918211600190811b92831c979088119617909417909217179091171717608081106105dc57607f810383901c91506105e6565b80607f0383901b91505b908002607f81811c60ff83811c9190911c800280831c81831c1c800280841c81841c1c800280851c81851c1c800280861c81861c1c800280871c81871c1c800280881c81881c1c800280891c81891c1c8002808a1c818a1c1c8002808b1c818b1c1c8002808c1c818c1c1c8002808d1c818d1c1c8002808e1c9c81901c9c909c1c80029c8d901c9e9d607f198f0160401b60c09190911c678000000000000000161760c19b909b1c674000000000000000169a909a1760c29990991c672000000000000000169890981760c39790971c671000000000000000169690961760c49590951c670800000000000000169490941760c59390931c670400000000000000169290921760c69190911c670200000000000000161760c79190911c670100000000000000161760c89190911c6680000000000000161760c99190911c6640000000000000161760ca9190911c6620000000000000161760cb9190911c6610000000000000161760cc9190911c6608000000000000161760cd9190911c66040000000000001617693627a301d71055774c8581026f028f6481ab7f045a5af012a19d003aa9198101608090811d906fdb2df09e81959a81455e260799a0632f8301901d600281810b9083900b146107e757886001600160a01b03166107cb8261019c565b6001600160a01b031611156107e057816107e2565b805b6107e9565b815b999850505050505050505056fea264697066735822122082dc86f2405d8816a4559541e59db79963b362f5122380f4ba319b339fb091ec64736f6c63430007060033",
  "immutableReferences": {},
  "source": "// SPDX-License-Identifier: UNLICENSED\npragma solidity =0.7.6;\n\nimport '../libraries/TickMath.sol';\n\ncontract TickMathEchidnaTest {\n    // uniqueness and increasing order\n    function checkGetSqrtRatioAtTickInvariants(int24 tick) external pure {\n        uint160 ratio = TickMath.getSqrtRatioAtTick(tick);\n        assert(TickMath.getSqrtRatioAtTick(tick - 1) < ratio && ratio < TickMath.getSqrtRatioAtTick(tick + 1));\n        assert(ratio >= TickMath.MIN_SQRT_RATIO);\n        assert(ratio <= TickMath.MAX_SQRT_RATIO);\n    }\n\n    // the ratio is always between the returned tick and the returned tick+1\n    function checkGetTickAtSqrtRatioInvariants(uint160 ratio) external pure {\n        int24 tick = TickMath.getTickAtSqrtRatio(ratio);\n        assert(ratio >= TickMath.getSqrtRatioAtTick(tick) && ratio < TickMath.getSqrtRatioAtTick(tick + 1));\n        assert(tick >= TickMath.MIN_TICK);\n        assert(tick < TickMath.MAX_TICK);\n    }\n}\n",
  "sourcePath": "C:\\Users\\fork-uniswap\\core\\contracts\\test\\TickMathEchidnaTest.sol",
  "compiler": {
    "name": "solc",
    "version": "0.7.6+commit.7338295f.Emscripten.clang"
  },
  "schemaVersion": "3.4.3",
  "updatedAt": "2022-03-05T06:45:30.863Z",
  "devdoc": {
    "kind": "dev",
    "methods": {},
    "version": 1
  },
  "userdoc": {
    "kind": "user",
    "methods": {},
    "version": 1
  }
}