{
  "contractName": "UnsafeMathEchidnaTest",
  "abi": [
    {
      "inputs": [
        {
          "internalType": "uint256",
          "name": "x",
          "type": "uint256"
        },
        {
          "internalType": "uint256",
          "name": "d",
          "type": "uint256"
        }
      ],
      "name": "checkDivRoundingUp",
      "outputs": [],
      "stateMutability": "pure",
      "type": "function"
    }
  ],
  "bytecode": "0x608060405234801561001057600080fd5b5060dd8061001f6000396000f3fe6080604052348015600f57600080fd5b506004361060285760003560e01c80632724da4e14602d575b600080fd5b604d60048036036040811015604157600080fd5b5080359060200135604f565b005b60008111605b57600080fd5b600060658383609c565b90506000828481607157fe5b0482039050828481607e57fe5b06608d578015608957fe5b6096565b80600114609657fe5b50505050565b80820491061515019056fea264697066735822122007cc54a1c5bf7a3fbc46a5096ace6136d4ac3740620e903c3ca64218542e8fa064736f6c63430007060033",
  "immutableReferences": {},
  "source": "// SPDX-License-Identifier: UNLICENSED\npragma solidity =0.7.6;\n\nimport '../libraries/UnsafeMath.sol';\n\ncontract UnsafeMathEchidnaTest {\n    function checkDivRoundingUp(uint256 x, uint256 d) external pure {\n        require(d > 0);\n        uint256 z = UnsafeMath.divRoundingUp(x, d);\n        uint256 diff = z - (x / d);\n        if (x % d == 0) {\n            assert(diff == 0);\n        } else {\n            assert(diff == 1);\n        }\n    }\n}\n",
  "sourcePath": "C:\\Users\\fork-uniswap\\core\\contracts\\test\\UnsafeMathEchidnaTest.sol",
  "compiler": {
    "name": "solc",
    "version": "0.7.6+commit.7338295f.Emscripten.clang"
  },
  "schemaVersion": "3.4.3",
  "updatedAt": "2022-03-05T06:45:30.880Z",
  "devdoc": {
    "kind": "dev",
    "methods": {},
    "version": 1
  },
  "userdoc": {
    "kind": "user",
    "methods": {},
    "version": 1
  }
}